:100000000C94B3000C94D4000C94D4000C94D40041
:100010000C94D4000C94990C0C94B60C0C94D40051
:100020000C94D4000C94D4000C94D4000C94D40000
:100030000C94D4000C94D4000C94D4000C94D400F0
:100040000C94D4000C94D4000C94D4000C94D400E0
:100050000C94D4000C94D4000C94D4000C94D400D0
:100060000C94D4000C94D4000C94D4000C94D400C0
:100070000C94D4000C94D4000C94D4000C94D400B0
:100080000C94D4000C94D4000C94D4000C94D400A0
:100090000C94D4000C94D4000C94D4000C94D40090
:1000A0000C94D4000C94D4000C94D4000C94D40080
:1000B0000C94D4000C94D4000C94D4000C94D40070
:1000C0000C94D4000C94D4000C94D4000C94D40060
:1000D0000C94D4000C94D4000C94D30A0C94D40047
:1000E0000C94F40A07634236B79BD8A71A396856AE
:1000F00018AEBAAB558C1D3CB7CC5763BD6DEDFD4A
:10010000753EF6177231BF000000803F0800000006
:10011000BE922449123EABAAAA2ABECDCCCC4C3EFC
:1001200000000080BEABAAAAAA3E00000000BF00EB
:100130000000803F0000000000084178D3BB4387E7
:10014000D1133D190E3CC3BD4282AD2B3E68EC82FB
:1001500076BED98FE1A93E4C80EFFFBE01C4FF7F80
:100160003F000000000011241FBECFEFD1E2DEBF30
:10017000CDBF00E00CBF13E0A0E0B2E0E4E9FBE497
:1001800000E00BBF02C007900D92A830B107D9F76D
:1001900013E0A8E0B3E001C01D92AA32B107E1F775
:1001A0000E94E50F0C94C8250C9400000F931F9338
:1001B000DF93CF93CDB7DEB7C057D0400FB6F894DA
:1001C000DEBF0FBECDBFFE01E359FF4F80E090E0E0
:1001D000A0E8BFE380839183A283B3838E01075994
:1001E0001F4FFE01E359FF4F60817181828193812E
:1001F0002DEC3CEC4CE255E40E94B01DDC01CB013F
:10020000F80180839183A283B383FE01E759FF4FF6
:10021000608171818281938120E030E040E85FE37A
:100220000E94B61F882344F4FE01E959FF4F81E084
:1002300090E09183808364C0FE01E759FF4F6081A5
:1002400071818281938120E03FEF4FE757E40E9464
:10025000561F18160CF043C0FE01E359FF4F608192
:1002600071818281938120E030E040E251E40E947C
:10027000B01DDC01CB018E0109591F4FBC01CD011E
:100280000E94DA1BDC01CB01F801918380831FC03F
:10029000FE01EB59FF4F84E191E091838083FE01E1
:1002A000EB59FF4F808191810197F1F7FE01EB59E6
:1002B000FF4F91838083DE01A959BF4FFE01E959A9
:1002C000FF4F80819181019711969C938E93FE013F
:1002D000E959FF4F808191810097D1F627C08E01A7
:1002E00009591F4FFE01E759FF4F608171818281DB
:1002F00093810E94DA1BDC01CB01F801918380839A
:10030000DE01AD59BF4FFE01E959FF4F8081918158
:100310008D939C93FE01ED59FF4F80819181019750
:10032000F1F7FE01ED59FF4F91838083A8E2B0E021
:10033000E8E2F0E080818E7F8C93A8E2B0E0E8E212
:10034000F0E080818D7F8C93E8E2F0E080E38083B1
:10035000A8E2B0E0E8E2F0E0808184608C93FE01E6
:10036000E15AFF4F80E090E0A0EAB0E480839183FF
:10037000A283B3838E01055A1F4FFE01E15AFF4F3E
:1003800060817181828193812DEC3CEC4CE255E4DB
:100390000E94B01DDC01CB01F80180839183A28310
:1003A000B383FE01E55AFF4F6081718182819381A1
:1003B00020E030E040E85FE30E94B61F882344F469
:1003C000FE01E75AFF4F81E090E09183808364C093
:1003D000FE01E55AFF4F608171818281938120E0A7
:1003E0003FEF4FE757E40E94561F18160CF043C02A
:1003F000FE01E15AFF4F608171818281938120E08B
:1004000030E040E251E40E94B01DDC01CB018E01DE
:10041000075A1F4FBC01CD010E94DA1BDC01CB0142
:10042000F801918380831FC0FE01E95AFF4F84E1E8
:1004300091E091838083FE01E95AFF4F8081918191
:100440000197F1F7FE01E95AFF4F91838083DE01A6
:10045000A75ABF4FFE01E75AFF4F80819181019754
:1004600011969C938E93FE01E75AFF4F80819181F4
:100470000097D1F627C08E01075A1F4FFE01E55A9B
:10048000FF4F60817181828193810E94DA1BDC01C0
:10049000CB01F80191838083DE01AB5ABF4FFE018F
:1004A000E75AFF4F808191818D939C93FE01EB5A17
:1004B000FF4F808191810197F1F7FE01EB5AFF4FC9
:1004C00091838083A8E2B0E0E8E2F0E080818B7F56
:1004D0008C93FE01EF5AFF4F80E090E0A0E8BFE36D
:1004E00080839183A283B3838E01035B1F4FFE0140
:1004F000EF5AFF4F60817181828193812DEC3CEC3A
:100500004CE255E40E94B01DDC01CB01F801808370
:100510009183A283B383FE01E35BFF4F608171810E
:100520008281938120E030E040E85FE30E94B61FC3
:10053000882344F4FE01E55BFF4F81E090E0918366
:10054000808364C0FE01E35BFF4F60817181828123
:10055000938120E03FEF4FE757E40E94561F1816A3
:100560000CF043C0FE01EF5AFF4F60817181828120
:10057000938120E030E040E251E40E94B01DDC01B4
:10058000CB018E01055B1F4FBC01CD010E94DA1B20
:10059000DC01CB01F801918380831FC0FE01E75B82
:1005A000FF4F84E191E091838083FE01E75BFF4F81
:1005B000808191810197F1F7FE01E75BFF4F918305
:1005C0008083DE01A55BBF4FFE01E55BFF4F8081AD
:1005D0009181019711969C938E93FE01E55BFF4FED
:1005E000808191810097D1F627C08E01055B1F4F56
:1005F000FE01E35BFF4F60817181828193810E94E4
:10060000DA1BDC01CB01F80191838083DE01A95B59
:10061000BF4FFE01E55BFF4F808191818D939C93DD
:10062000FE01E95BFF4F808191810197F1F7FE01A7
:10063000E95BFF4F91838083A8E2B0E0E8E2F0E05D
:1006400080818E7F8C93A8E2B0E0E8E2F0E08081C8
:100650008D7F8C93E8E2F0E080E38083A8E2B0E055
:10066000E8E2F0E0808184608C93FE01ED5BFF4F57
:1006700080E090E0A0EAB0E480839183A283B3831A
:100680008E01015C1F4FFE01ED5BFF4F60817181A8
:10069000828193812DEC3CEC4CE255E40E94B01D2C
:1006A000DC01CB01F80180839183A283B383FE0137
:1006B000FF96608171818281938120E030E040E883
:1006C0005FE30E94B61F88232CF481E090E09EAF88
:1006D0008DAF46C0FE01FF9660817181828193815A
:1006E00020E03FEF4FE757E40E94561F181664F5CD
:1006F000FE01ED5BFF4F608171818281938120E07B
:1007000030E040E251E40E94B01DDC01CB01BC01AD
:10071000CD010E94DA1BDC01CB019EAF8DAF0FC073
:1007200084E191E09CAF8BAF8BAD9CAD0197F1F76D
:100730009CAF8BAF8DAD9EAD01979EAF8DAF8DAD54
:100740009EAD009769F716C0FE01FF96608171812A
:10075000828193810E94DA1BDC01CB019EAF8DAFB9
:100760008DAD9EAD9AAF89AF89AD9AAD0197F1F786
:100770009AAF89AFA8E2B0E0E8E2F0E080818B7F39
:100780008C9380E090E0A0E8BFE38DAB9EABAFAB75
:10079000B8AF6DA97EA98FA998AD2DEC3CEC4CE2C9
:1007A00055E40E94B01DDC01CB0189AB9AABABAB29
:1007B000BCAB69A97AA98BA99CA920E030E040E8EC
:1007C0005FE30E94B61F88232CF481E090E098AB91
:1007D0008FA73FC069A97AA98BA99CA920E03FEF08
:1007E0004FE757E40E94561F18164CF56DA97EA9D5
:1007F0008FA998AD20E030E040E251E40E94B01DA6
:10080000DC01CB01BC01CD010E94DA1BDC01CB0174
:1008100098AB8FA70FC084E191E09EA78DA78DA50F
:100820009EA50197F1F79EA78DA78FA598A901977F
:1008300098AB8FA78FA598A9009769F714C069A9ED
:100840007AA98BA99CA90E94DA1BDC01CB0198AB89
:100850008FA78FA598A99CA78BA78BA59CA501976F
:10086000F1F79CA78BA7A8E2B0E0E8E2F0E0808176
:100870008E7F8C93A8E2B0E0E8E2F0E080818D7F8B
:100880008C93E8E2F0E080E38083A8E2B0E0E8E265
:10089000F0E0808184608C9380E090E0A0EAB0E496
:1008A0008FA398A7A9A7BAA76FA178A589A59AA58C
:1008B0002DEC3CEC4CE255E40E94B01DDC01CB0178
:1008C0008BA39CA3ADA3BEA36BA17CA18DA19EA174
:1008D00020E030E040E85FE30E94B61F88232CF45C
:1008E00081E090E09AA389A33FC06BA17CA18DA178
:1008F0009EA120E03FEF4FE757E40E94561F1816D5
:100900004CF56FA178A589A59AA520E030E040E2DA
:1009100051E40E94B01DDC01CB01BC01CD010E945D
:10092000DA1BDC01CB019AA389A30FC084E191E01B
:1009300098A38F8F8F8D98A10197F1F798A38F8F30
:1009400089A19AA101979AA389A389A19AA1009745
:1009500069F714C06BA17CA18DA19EA10E94DA1B36
:10096000DC01CB019AA389A389A19AA19E8F8D8FC7
:100970008D8D9E8D0197F1F79E8F8D8FA8E2B0E04F
:10098000E8E2F0E080818B7F8C9380E090E0A0E84B
:10099000BFE3898F9A8FAB8FBC8F698D7A8D8B8DDA
:1009A0009C8D2DEC3CEC4CE255E40E94B01DDC012A
:1009B000CB018D8B9E8BAF8BB88F6D897E898F8994
:1009C000988D20E030E040E85FE30E94B61F882366
:1009D0002CF481E090E09C8B8B8B3FC06D897E89ED
:1009E0008F89988D20E03FEF4FE757E40E94561F14
:1009F00018164CF5698D7A8D8B8D9C8D20E030E03A
:100A000040E251E40E94B01DDC01CB01BC01CD01EC
:100A10000E94DA1BDC01CB019C8B8B8B0FC084E125
:100A200091E09A8B898B89899A890197F1F79A8B42
:100A3000898B8B899C8901979C8B8B8B8B899C895B
:100A4000009769F714C06D897E898F89988D0E94FF
:100A5000DA1BDC01CB019C8B8B8B8B899C89988B5F
:100A60008F878F8598890197F1F7988B8F87A8E2F8
:100A7000B0E0E8E2F0E080818E7F8C93A8E2B0E005
:100A8000E8E2F0E080818D7F8C93E8E2F0E080E2A4
:100A90008083A8E2B0E0E8E2F0E0808184608C939B
:100AA00080E090E0A0EAB0E48B879C87AD87BE87AA
:100AB0006B857C858D859E852DEC3CEC4CE255E468
:100AC0000E94B01DDC01CB018F839887A987BA876C
:100AD0006F81788589859A8520E030E040E85FE382
:100AE0000E94B61F88232CF481E090E09E838D83C2
:100AF0003FC06F81788589859A8520E03FEF4FE779
:100B000057E40E94561F18164CF56B857C858D8521
:100B10009E8520E030E040E251E40E94B01DDC01FF
:100B2000CB01BC01CD010E94DA1BDC01CB019E830D
:100B30008D830FC084E191E09C838B838B819C81AA
:100B40000197F1F79C838B838D819E8101979E8312
:100B50008D838D819E81009769F714C06F817885A0
:100B600089859A850E94DA1BDC01CB019E838D83E7
:100B70008D819E819A83898389819A810197F1F77A
:100B80009A838983A8E2B0E0E8E2F0E080818B7F7D
:100B90008C93C059DF4F0FB6F894DEBF0FBECDBFA8
:100BA000CF91DF911F910F910895DF93CF93CDB730
:100BB000DEB72E970FB6F894DEBF0FBECDBF80E034
:100BC00090E0A0E8BFE38B879C87AD87BE876B85ED
:100BD0007C858D859E852DEC3CEC4CE255E40E9495
:100BE000B01DDC01CB018F839887A987BA876F81FD
:100BF000788589859A8520E030E040E85FE30E94AF
:100C0000B61F88232CF481E090E09E838D833FC043
:100C10006F81788589859A8520E03FEF4FE757E41B
:100C20000E94561F18164CF56B857C858D859E8518
:100C300020E030E040E251E40E94B01DDC01CB0135
:100C4000BC01CD010E94DA1BDC01CB019E838D83A8
:100C50000FC084E191E09C838B838B819C81019701
:100C6000F1F79C838B838D819E8101979E838D8379
:100C70008D819E81009769F714C06F817885898581
:100C80009A850E94DA1BDC01CB019E838D838D81C6
:100C90009E819A83898389819A810197F1F79A834A
:100CA000898388E20E94690681E00E94690686E0E5
:100CB0000E9469068EE00E94690680E80E9469062B
:100CC0002E960FB6F894DEBF0FBECDBFCF91DF9149
:100CD0000895DF93CF93CDB7DEB76E970FB6F89434
:100CE000DEBF0FBECDBF8E8F8E8D8D8F8D8D807FA1
:100CF0008D8FA8E2B0E0E8E2F0E080818F708C9305
:100D0000A8E2B0E0E8E2F0E090818D8D892B8C9331
:100D1000A8E2B0E0E8E2F0E080818E7F8C93A8E268
:100D2000B0E0E8E2F0E080818D7F8C93A8E2B0E053
:100D3000E8E2F0E0808184608C9380E090E0A0EABB
:100D4000B0E4898F9A8FAB8FBC8F698D7A8D8B8D34
:100D50009C8D2DEC3CEC4CE255E40E94B01DDC0176
:100D6000CB018D8B9E8BAF8BB88F6D897E898F89E0
:100D7000988D20E030E040E85FE30E94B61F8823B2
:100D80002CF481E090E09C8B8B8B3FC06D897E8939
:100D90008F89988D20E03FEF4FE757E40E94561F60
:100DA00018164CF5698D7A8D8B8D9C8D20E030E086
:100DB00040E251E40E94B01DDC01CB01BC01CD0139
:100DC0000E94DA1BDC01CB019C8B8B8B0FC084E172
:100DD00091E09A8B898B89899A890197F1F79A8B8F
:100DE000898B8B899C8901979C8B8B8B8B899C89A8
:100DF000009769F714C06D897E898F89988D0E944C
:100E0000DA1BDC01CB019C8B8B8B8B899C89988BAB
:100E10008F878F8598890197F1F7988B8F87A8E244
:100E2000B0E0E8E2F0E080818B7F8C938E8D8F7054
:100E30008E8F8E8D8295807F8E8FA8E2B0E0E8E263
:100E4000F0E080818F708C93A8E2B0E0E8E2F0E0FF
:100E500090818E8D892B8C93A8E2B0E0E8E2F0E0DF
:100E600080818E7F8C93A8E2B0E0E8E2F0E08081A0
:100E70008D7F8C93A8E2B0E0E8E2F0E080818460AE
:100E80008C9380E090E0A0EAB0E48B879C87AD87EC
:100E9000BE876B857C858D859E852DEC3CEC4CE278
:100EA00055E40E94B01DDC01CB018F839887A98790
:100EB000BA876F81788589859A8520E030E040E89F
:100EC0005FE30E94B61F88232CF481E090E09E83AC
:100ED0008D833FC06F81788589859A8520E03FEFBB
:100EE0004FE757E40E94561F18164CF56B857C851A
:100EF0008D859E8520E030E040E251E40E94B01DE7
:100F0000DC01CB01BC01CD010E94DA1BDC01CB016D
:100F10009E838D830FC084E191E09C838B838B81C2
:100F20009C810197F1F79C838B838D819E81019732
:100F30009E838D838D819E81009769F714C06F8198
:100F4000788589859A850E94DA1BDC01CB019E8316
:100F50008D838D819E819A83898389819A8101976E
:100F6000F1F79A838983A8E2B0E0E8E2F0E08081BB
:100F70008B7F8C936E960FB6F894DEBF0FBECDBFFD
:100F8000CF91DF910895DF93CF93CDB7DEB76E9702
:100F90000FB6F894DEBF0FBECDBF8E8F8E8D8D8FB6
:100FA0008D8D807F8D8FA8E2B0E0E8E2F0E0808157
:100FB0008F708C93A8E2B0E0E8E2F0E090818D8D34
:100FC000892B8C93A8E2B0E0E8E2F0E080818160B8
:100FD0008C93A8E2B0E0E8E2F0E080818D7F8C9312
:100FE000A8E2B0E0E8E2F0E0808184608C9380E0E9
:100FF00090E0A0EAB0E4898F9A8FAB8FBC8F698DA7
:101000007A8D8B8D9C8D2DEC3CEC4CE255E40E944E
:10101000B01DDC01CB018D8B9E8BAF8BB88F6D89A2
:101020007E898F89988D20E030E040E85FE30E9460
:10103000B61F88232CF481E090E09C8B8B8B3FC003
:101040006D897E898F89988D20E03FEF4FE757E4C7
:101050000E94561F18164CF5698D7A8D8B8D9C8DCC
:1010600020E030E040E251E40E94B01DDC01CB0101
:10107000BC01CD010E94DA1BDC01CB019C8B8B8B68
:101080000FC084E191E09A8B898B89899A890197B5
:10109000F1F79A8B898B8B899C8901979C8B8B8B21
:1010A0008B899C89009769F714C06D897E898F8927
:1010B000988D0E94DA1BDC01CB019C8B8B8B8B897A
:1010C0009C89988B8F878F8598890197F1F7988BEA
:1010D0008F87A8E2B0E0E8E2F0E080818B7F8C931C
:1010E0008E8D8F708E8F8E8D8295807F8E8FA8E2F1
:1010F000B0E0E8E2F0E080818F708C93A8E2B0E08D
:10110000E8E2F0E090818E8D892B8C93A8E2B0E02C
:10111000E8E2F0E0808181608C93A8E2B0E0E8E250
:10112000F0E080818D7F8C93A8E2B0E0E8E2F0E00F
:10113000808184608C9380E090E0A0EAB0E48B87AB
:101140009C87AD87BE876B857C858D859E852DECC4
:101150003CEC4CE255E40E94B01DDC01CB018F83D6
:101160009887A987BA876F81788589859A8520E0D5
:1011700030E040E85FE30E94B61F88232CF481E052
:1011800090E09E838D833FC06F81788589859A85A5
:1011900020E03FEF4FE757E40E94561F18164CF52A
:1011A0006B857C858D859E8520E030E040E251E4B2
:1011B0000E94B01DDC01CB01BC01CD010E94DA1BF5
:1011C000DC01CB019E838D830FC084E191E09C8381
:1011D0008B838B819C810197F1F79C838B838D811D
:1011E0009E8101979E838D838D819E81009769F7F3
:1011F00014C06F81788589859A850E94DA1BDC018D
:10120000CB019E838D838D819E819A838983898181
:101210009A810197F1F79A838983A8E2B0E0E8E226
:10122000F0E080818B7F8C936E960FB6F894DEBFD2
:101230000FBECDBFCF91DF910895DF93CF93CDB790
:10124000DEB780E80E946906CF91DF910895DF93B1
:10125000CF930F920F92CDB7DEB79A8389830AC0DE
:10126000E981FA8180810E94C30789819A81019670
:101270009A838983E981FA818081882389F70F9095
:101280000F90CF91DF910895DF93CF9300D00F920D
:10129000CDB7DEB789836A838981282F30E03C830C
:1012A0002B838B819C8182309105D9F02B813C81ED
:1012B0002330310534F48B819C818130910561F0BC
:1012C0001EC02B813C812330310581F08B819C81B4
:1012D0008430910581F013C08A8181580E9469068B
:1012E0000EC08A8181540E94690609C08A818D5688
:1012F0000E94690604C08A818D520E9469060F907F
:101300000F900F900F90CF91DF910895DF93CF93BF
:10131000CDB7DEB727970FB6F894DEBF0FBECDBFAF
:101320008A836B835D834C833F832E8319828A81FA
:10133000882319F08B81882319F40E941D0904C0A9
:101340008A816B810E9444098E819F81853091053D
:1013500019F089818130A9F48C819D8120E137E2E7
:10136000B9010E940623CB01C09690930903809394
:10137000080380910803909109030E94C30781E04C
:1013800089838E819F818430910519F08981813014
:1013900011F58C819D8128EE33E0B9010E9406236E
:1013A000CB019093120380931103809111039091CC
:1013B00012032AE030E0B9010E940623C096909300
:1013C00027038093260380912603909127030E9490
:1013D000C30781E089838E819F818330910519F055
:1013E0008981813011F58C819D8124E630E0B9013D
:1013F0000E940623CB0190931203809311038091E6
:101400001103909112032AE030E0B9010E940623F3
:10141000C0969093200380931F0380911F039091A7
:1014200020030E94C30781E089838E819F818230DF
:10143000910519F08981813011F58C819D812AE017
:1014400030E0B9010E940623CB01909312038093F0
:10145000110380911103909112032AE030E0B90149
:101460000E940623C09690931D0380931C038091D5
:101470001C0390911D030E94C30781E089838E8124
:101480009F818130910519F08981813091F48C819F
:101490009D812AE030E0B9010E940623C096909316
:1014A00025038093240380912403909125030E94B7
:1014B000C3078E819F81863091051CF085E40E94D0
:1014C000C30727960FB6F894DEBF0FBECDBFCF91EE
:1014D000DF910895DF93CF93CDB7DEB7E1E2F0E07F
:1014E0008FE08083E2E2F0E01082EDE2F0E08FEC4A
:1014F0008083EEE2F0E08FEF8083EAE0F1E088E1C4
:101500008083EBE0F1E088E18083E7E2F0E01082A5
:10151000E8E2F0E01082E1E2F1E01082E0E2F1E0E6
:1015200081EA8083E1E2F1E08BE08083CF91DF917B
:101530000895DF93CF93CDB7DEB7E1E2F0E08FE01F
:101540008083E2E2F0E01082EDE2F0E08FEC808355
:10155000EEE2F0E08FEF8083EAE0F1E088E1808363
:10156000EBE0F1E088E18083CF91DF910895DF9394
:10157000CF93CDB7DEB7E1E3F1E01082E0E3F1E035
:101580001082E2E3F1E086E08083E4E3F1E08FE5BE
:101590008083E5E3F1E01082E1E3F1E088E9808314
:1015A000CF91DF9108951F920F920FB60F92009086
:1015B0005B000F9211248F93EF93FF93DF93CF93F0
:1015C000CDB7DEB7E6E3F1E0808180931E03CF91D3
:1015D000DF91FF91EF918F910F9000925B000F9040
:1015E0000FBE0F901F9018951F920F920FB60F927B
:1015F0001124DF93CF93CDB7DEB7CF91DF910F905A
:101600000FBE0F901F901895DF93CF93CDB7DEB725
:10161000E1E2F1E01082E0E2F1E081EA8083E1E2E0
:10162000F1E08BE08083CF91DF910895DF93CF933A
:10163000CDB7DEB7E2E2F0E086E08083CF91DF91C4
:101640000895DF93CF93CDB7DEB7E2E2F0E08AE012
:101650008083CF91DF910895DF93CF93CDB7DEB72D
:10166000E2E2F0E085E08083CF91DF910895DF939F
:10167000CF93CDB7DEB7E2E2F0E089E08083CF918F
:10168000DF910895DF93CF93CDB7DEB7E2E2F0E0CC
:101690001082CF91DF910895DF93CF930F920F9235
:1016A000CDB7DEB789836A83E8E2F1E08981808380
:1016B000EAE2F1E08A8180830F900F90CF91DF9171
:1016C0000895DF93CF93CDB7DEB7F894AAE6B0E0E4
:1016D000EAE6F0E0808182608C93ADE3B0E0EDE378
:1016E000F0E0808180618C937894CF91DF910895B0
:1016F000DF93CF93CDB7DEB7F894AAE6B0E0EAE681
:10170000F0E0808188608C93ADE3B0E0EDE3F0E041
:10171000808180628C937894CF91DF910895DF93DC
:10172000CF93CDB7DEB72C970FB6F894DEBF0FBEC0
:10173000CDBF9A87898780E090E0A0E0B0E08D83FC
:101740009E83AF83B88719821A821B821C82898587
:101750009A85CC01A0E0B0E0BC01CD010E949820A8
:10176000DC01CB01BC01CD0128E431EE42E050E4C4
:101770000E94AA1EDC01CB018D839E83AF83B887B4
:101780006D817E818F8198850E94DA1BDC01CB01FF
:10179000CC01A0E0B0E089839A83AB83BC83109234
:1017A0000B0310920A0310922203109221038091DE
:1017B0000A0390910B039C01442737FD4095542F59
:1017C0001C8689819A81AB81BC81281739074A0719
:1017D0005B0710F081E08C878091210390912203B8
:1017E0009C01442737FD4095542F1B8689819A819F
:1017F000AB81BC81281739074A075B0710F091E0DD
:101800009B878C859B85892B882319F40E94210B4B
:10181000CECF0E94420B2C960FB6F894DEBF0FBEBF
:10182000CDBFCF91DF910895DF93CF93CDB7DEB7D2
:101830002C970FB6F894DEBF0FBECDBF9A8789876D
:1018400080E090E0A0E0B0E08D839E83AF83B88716
:1018500019821A821B821C8289859A85CC01A0E09C
:10186000B0E0BC01CD010E949820DC01CB01BC019D
:10187000CD0128E431EE42E050E40E94AA1EDC01D2
:10188000CB018D839E83AF83B8876D817E818F81ED
:1018900098850E94DA1BDC01CB01CC01A0E0B0E00E
:1018A00089839A83AB83BC8310920B0310920A0343
:1018B000109222031092210380910A0390910B034E
:1018C0009C01442737FD4095542F1C8689819A81BD
:1018D000AB81BC81281739074A075B0710F081E00C
:1018E0008C8780912103909122039C01442737FD2E
:1018F0004095542F1B8689819A81AB81BC81281722
:1019000039074A075B0710F091E09B878C859B8520
:10191000892B882319F40E942C0BCECF0E94420BF6
:101920002C960FB6F894DEBF0FBECDBFCF91DF91DE
:1019300008951F920F920FB60F9211248F939F93C9
:10194000DF93CF93CDB7DEB780912103909122032F
:1019500001969093220380932103CF91DF919F9171
:101960008F910F900FBE0F901F9018951F920F929E
:101970000FB60F9211248F939F93DF93CF93CDB720
:10198000DEB780910A0390910B03019690930B03AD
:1019900080930A03CF91DF919F918F910F900FBE9B
:1019A0000F901F901895DF93CF93CDB7DEB72A978E
:1019B0000FB6F894DEBF0FBECDBF9A87898780E04F
:1019C00090E0A0E0B0E08D839E83AF83B88719825A
:1019D0001A821B821C8289859A85CC01A0E0B0E026
:1019E000BC01CD010E949820DC01CB01BC01CD01DE
:1019F00025EE30ED4AEA50E40E94AA1EDC01CB013C
:101A00008D839E83AF83B8876D817E818F8198851A
:101A10000E94DA1BDC01CB0189839A83AB83BC83F0
:101A200010920B0310920A0380910A0390910B030A
:101A30009C01442737FD4095542F89819A81AB81C1
:101A4000BC8182179307A407B50718F00E94160BF4
:101A5000EBCF0E94420B2A960FB6F894DEBF0FBE62
:101A6000CDBFCF91DF910895DF93CF93CDB7DEB790
:101A7000A7E2B0E0E7E2F0E08081876F8C93A8E214
:101A8000B0E0E8E2F0E0808180788C93CF91DF9144
:101A90000895DF93CF93CDB7DEB7E0E3F0E0108297
:101AA000E1E3F0E01082E7E0F1E01082E8E0F1E04D
:101AB0001082CF91DF910895DF93CF93CDB7DEB73A
:101AC0000E94340D0E94490DCF91DF910895DF935C
:101AD000CF93CDB7DEB7EAE7F0E01082EBE7F0E0B6
:101AE0001082ECE7F0E080E28083E0E5F0E080E85F
:101AF0008083EAE7F0E086E88083CF91DF91089564
:101B0000DF93CF93CDB7DEB7F8940E945C0D0E94AF
:101B1000670D7894CF91DF910895DF93CF930F9263
:101B20000F92CDB7DEB78A838A81883020F0EBE749
:101B3000F0E088E080838A8187708A83ECE7F0E0B8
:101B40008A8180628083AAE7B0E0EAE7F0E08081E2
:101B500080648C93EAE7F0E08081882F90E08071C8
:101B600090700097B9F3E9E7F0E080818983AAE7F4
:101B7000B0E0EAE7F0E0808180618C93EBE7F0E091
:101B8000108289810F900F90CF91DF910895DF939C
:101B9000CF93CDB7DEB727970FB6F894DEBF0FBE51
:101BA000CDBF8F838F81882F90E0A0E0B0E0BC0193
:101BB000CD010E949820DC01CB01BC01CD012FEEAC
:101BC00039EC43E95FE30E945123DC01CB019C0126
:101BD000AD0160E070E080E89FE30E94AA1EDC0196
:101BE000CB01BC01CD012AE939EF4EE255E40E9458
:101BF000B01DDC01CB01BC01CD0120E030E040E2B2
:101C000051E40E94B01DDC01CB01BC01CD010E945A
:101C10004420DC01CB01AA2797FDA095BA2FBC0177
:101C2000CD010E94E61FDC01CB018B839C83AD8339
:101C3000BE836B817C818D819E810E944420DC016A
:101C4000CB019A83898389819A8123E0813292072B
:101C500020F080E293E09A83898389819A81279694
:101C60000FB6F894DEBF0FBECDBFCF91DF910895C0
:101C7000DF93CF93CDB7DEB7A4E2B0E0E4E2F0E0CB
:101C8000808180628C93A5E2B0E0E5E2F0E08081A3
:101C900080628C93CF91DF910895DF93CF93CDB77E
:101CA000DEB7A4E2B0E0E4E2F0E0808180648C93EF
:101CB000A5E2B0E0E5E2F0E0808180648C93CF9112
:101CC000DF910895DF93CF93CDB7DEB7A4E2B0E004
:101CD000E4E2F0E0808180688C93A5E2B0E0E5E288
:101CE000F0E0808180688C93CF91DF910895DF933D
:101CF000CF93CDB7DEB70E94380E0E944D0E0E94E2
:101D0000620ECF91DF910895DF93CF93CDB7DEB709
:101D1000E1E8F0E01082E5E8F0E08CEF8083E4E8B1
:101D2000F0E081E08083E9E8F0E083E08083E8E8A8
:101D3000F0E08FEF8083EBE8F0E083E08083EAE877
:101D4000F0E08FEF8083EDE8F0E083E08083ECE863
:101D5000F0E08FEF8083E7E8F0E083E08083E6E85F
:101D6000F0E08FEF8083E0E8F0E08BEA8083E2E848
:101D7000F0E01082E1E8F0E08CE08083CF91DF9129
:101D80000895DF93CF93CDB7DEB7F8940E94770E16
:101D90000E94840E7894CF91DF9108950F931F9342
:101DA000DF93CF9300D00F920F92CDB7DEB78D8324
:101DB00080E090E0A0E0B0E089839A83AB83BC83AD
:101DC0008D81882F90E0A0E0B0E0BC01CD010E94A1
:101DD0009820DC01CB01BC01CD0120E030E040E1E6
:101DE00050E40E94AA1EDC01CB01BC01CD0120E021
:101DF00030E048EA51E40E94831DDC01CB01898375
:101E00009A83AB83BC83E9E8F0E0108208E810E035
:101E100069817A818B819C810E94DA1BDC01CB0174
:101E2000F80180830F900F900F900F900F90CF913B
:101E3000DF911F910F9108950F931F93DF93CF931D
:101E400000D00F920F92CDB7DEB78D8380E090E087
:101E5000A0E0B0E089839A83AB83BC838D81882F17
:101E600090E0A0E0B0E0BC01CD010E949820DC0130
:101E7000CB01BC01CD0120E030E040E150E40E9404
:101E8000AA1EDC01CB01BC01CD0120E030E048EA14
:101E900051E40E94831DDC01CB0189839A83AB83CB
:101EA000BC83EBE8F0E010820AE810E069817A81F7
:101EB0008B819C810E94DA1BDC01CB01F8018083BD
:101EC0000F900F900F900F900F90CF91DF911F9177
:101ED0000F9108950F931F93DF93CF9300D00F922C
:101EE0000F92CDB7DEB78D8380E090E0A0E0B0E048
:101EF00089839A83AB83BC838D81882F90E0A0E097
:101F0000B0E0BC01CD010E949820DC01CB01BC01F6
:101F1000CD0120E030E040E150E40E94AA1EDC0147
:101F2000CB01BC01CD0120E030E048EA51E40E9441
:101F3000831DDC01CB0189839A83AB83BC83EDE8ED
:101F4000F0E010820CE810E069817A818B819C813D
:101F50000E94DA1BDC01CB01F80180830F900F9007
:101F60000F900F900F90CF91DF911F910F910895D7
:101F7000DF93CF93CDB7DEB7E9E8F0E083E080836D
:101F8000E8E8F0E08FEF8083CF91DF910895DF9351
:101F9000CF93CDB7DEB7EBE8F0E083E08083EAE8EB
:101FA000F0E08FEF8083CF91DF910895DF93CF939F
:101FB000CDB7DEB7EDE8F0E083E08083ECE8F0E059
:101FC0008FEF8083CF91DF9108950F931F93DF935D
:101FD000CF93CDB7DEB7C75ED0400FB6F894DEBF63
:101FE0000FBECDBFF8940E946A0A0E94B70A0E94F1
:101FF000040B78940E94990A0E94780B0E94610B4E
:102000000E94800D0E94D6000E94D505FE01EE516F
:10201000FF4F81E090E091838083FE01EF51FF4FFD
:1020200010820E94C10E8BE00E948D0D80932303CD
:10203000809123030E94C70DFE01EA51FF4F918357
:102040008083FE01EA51FF4F2081318181E061E010
:10205000A90123E030E00E94860989E00E948D0DED
:1020600080931B0380911B030E94C70DFE01EC515E
:10207000FF4F91838083FE01EC51FF4F208131811E
:1020800081E065E0A90123E030E00E94860980E359
:1020900080931E0382E063E00E94440980911E0346
:1020A0000E94C3078BE00E948D0D809323038091D3
:1020B00023030E94C70DFE01EA51FF4F91838083E5
:1020C000FE01EA51FF4F2081318181E061E0A901E9
:1020D00023E030E00E94860989E00E948D0D809304
:1020E0001B0380911B030E94C70DFE01EC51FF4FA3
:1020F00091838083FE01EC51FF4F2081318181E08B
:1021000065E0A90123E030E00E9486090C9486185E
:1021100080911E03863409F0C3C082E063E00E9410
:10212000440980911E030E94C3070E94160B86E992
:1021300066E90E944C0BFE01E352FF4F80E090E005
:10214000AAE7B4E480839183A283B3838E0107520C
:102150001F4FFE01E352FF4F6081718182819381A5
:102160002DEC3CEC4CE255E40E94B01DDC01CB01AF
:10217000F80180839183A283B383FE01E752FF4F6E
:10218000608171818281938120E030E040E85FE3EB
:102190000E94B61F882344F4FE01E952FF4F81E0FC
:1021A00090E09183808364C0FE01E752FF4F60811D
:1021B00071818281938120E03FEF4FE757E40E94D5
:1021C000561F18160CF043C0FE01E352FF4F60810A
:1021D00071818281938120E030E040E251E40E94ED
:1021E000B01DDC01CB018E0109521F4FBC01CD0196
:1021F0000E94DA1BDC01CB01F801918380831FC0B0
:10220000FE01EB52FF4F84E191E091838083FE0158
:10221000EB52FF4F808191810197F1F7FE01EB5264
:10222000FF4F91838083DE01A952BF4FFE01E95227
:10223000FF4F80819181019711969C938E93FE01AF
:10224000E952FF4F808191810097D1F627C08E011E
:1022500009521F4FFE01E752FF4F60817181828159
:1022600093810E94DA1BDC01CB01F801918380830A
:10227000DE01AD52BF4FFE01E952FF4F80819181D7
:102280008D939C93FE01ED52FF4F808191810197C8
:10229000F1F7FE01ED52FF4F918380830E94420BC4
:1022A00080911E038D3469F4FE01EE51FF4F1182BF
:1022B000108282E063E00E94440980911E030E9424
:1022C000C30780911E038D3679F4FE01EE51FF4F56
:1022D00081E090E09183808382E063E00E94440982
:1022E00080911E030E94C30780911E03823409F06F
:1022F000C3C082E063E00E94440980911E030E94F3
:10230000C3070E94370B86E966E90E944C0BFE0169
:10231000E153FF4F80E090E0AAE7B3E4808391832C
:10232000A283B3838E0105531F4FFE01E153FF4F7C
:1023300060817181828193812DEC3CEC4CE255E40B
:102340000E94B01DDC01CB01F80180839183A28340
:10235000B383FE01E553FF4F6081718182819381D8
:1023600020E030E040E85FE30E94B61F882344F499
:10237000FE01E753FF4F81E090E09183808364C0CA
:10238000FE01E553FF4F608171818281938120E0DE
:102390003FEF4FE757E40E94561F18160CF043C05A
:1023A000FE01E153FF4F608171818281938120E0C2
:1023B00030E040E251E40E94B01DDC01CB018E010F
:1023C00007531F4FBC01CD010E94DA1BDC01CB017A
:1023D000F801918380831FC0FE01E953FF4F84E120
:1023E00091E091838083FE01E953FF4F80819181C9
:1023F0000197F1F7FE01E953FF4F91838083DE01DE
:10240000A753BF4FFE01E753FF4F80819181019792
:1024100011969C938E93FE01E753FF4F808191812B
:102420000097D1F627C08E0107531F4FFE01E553D9
:10243000FF4F60817181828193810E94DA1BDC01F0
:10244000CB01F80191838083DE01AB53BF4FFE01C6
:10245000E753FF4F808191818D939C93FE01EB5355
:10246000FF4F808191810197F1F7FE01EB53FF4F00
:10247000918380830E94420B80911E038C3409F06B
:10248000C5C082E063E00E94440980911E030E945F
:10249000C30785E090E00E94140C86E966E90E947B
:1024A0004C0BFE01EF53FF4F80E090E0AAE7B3E44E
:1024B00080839183A283B3838E0103541F4FFE0157
:1024C000EF53FF4F60817181828193812DEC3CEC51
:1024D0004CE255E40E94B01DDC01CB01F801808381
:1024E0009183A283B383FE01E354FF4F6081718126
:1024F0008281938120E030E040E85FE30E94B61FD4
:10250000882344F4FE01E554FF4F81E090E091837D
:10251000808364C0FE01E354FF4F6081718182813A
:10252000938120E03FEF4FE757E40E94561F1816B3
:102530000CF043C0FE01EF53FF4F60817181828137
:10254000938120E030E040E251E40E94B01DDC01C4
:10255000CB018E0105541F4FBC01CD010E94DA1B37
:10256000DC01CB01F801918380831FC0FE01E75499
:10257000FF4F84E191E091838083FE01E754FF4F98
:10258000808191810197F1F7FE01E754FF4F91831C
:102590008083DE01A554BF4FFE01E554FF4F8081CB
:1025A0009181019711969C938E93FE01E554FF4F04
:1025B000808191810097D1F627C08E0105541F4F6D
:1025C000FE01E354FF4F60817181828193810E94FB
:1025D000DA1BDC01CB01F80191838083DE01A95471
:1025E000BF4FFE01E554FF4F808191818D939C93F5
:1025F000FE01E954FF4F808191810197F1F7FE01BF
:10260000E954FF4F918380830E94420B80911E0307
:10261000823509F0C5C082E063E00E9444098091E0
:102620001E030E94C3078AE090E00E948F0B86E998
:1026300066E90E944C0BFE01ED54FF4F80E090E0F4
:10264000AAE7B3E480839183A283B3838E0101550B
:102650001F4FFE01ED54FF4F608171818281938194
:102660002DEC3CEC4CE255E40E94B01DDC01CB01AA
:10267000F80180839183A283B383FE01E155FF4F6C
:10268000608171818281938120E030E040E85FE3E6
:102690000E94B61F882344F4FE01E355FF4F81E0FA
:1026A00090E09183808364C0FE01E155FF4F60811B
:1026B00071818281938120E03FEF4FE757E40E94D0
:1026C000561F18160CF043C0FE01ED54FF4F6081F9
:1026D00071818281938120E030E040E251E40E94E8
:1026E000B01DDC01CB018E0103551F4FBC01CD0194
:1026F0000E94DA1BDC01CB01F801918380831FC0AB
:10270000FE01E555FF4F84E191E091838083FE0156
:10271000E555FF4F808191810197F1F7FE01E55565
:10272000FF4F91838083DE01A355BF4FFE01E35528
:10273000FF4F80819181019711969C938E93FE01AA
:10274000E355FF4F808191810097D1F627C08E011C
:1027500003551F4FFE01E155FF4F6081718182815A
:1027600093810E94DA1BDC01CB01F8019183808305
:10277000DE01A755BF4FFE01E355FF4F80819181D8
:102780008D939C93FE01E755FF4F808191810197C6
:10279000F1F7FE01E755FF4F918380830E94420BC2
:1027A00080911E038C3609F0C5C082E063E00E9470
:1027B000440980911E030E94C30783E090E00E94B9
:1027C000140C86E966E90E944C0BFE01EB55FF4FA5
:1027D00080E090E0AAE7B3E480839183A283B3838F
:1027E0008E010F551F4FFE01EB55FF4F6081718128
:1027F000828193812DEC3CEC4CE255E40E94B01DAB
:10280000DC01CB01F80180839183A283B383FE01B5
:10281000EF55FF4F608171818281938120E030E02C
:1028200040E85FE30E94B61F882344F4FE01E156AE
:10283000FF4F81E090E09183808364C0FE01EF55FB
:10284000FF4F608171818281938120E03FEF4FE7EC
:1028500057E40E94561F18160CF043C0FE01EB55BA
:10286000FF4F608171818281938120E030E040E2FE
:1028700051E40E94B01DDC01CB018E0101561F4FB7
:10288000BC01CD010E94DA1BDC01CB01F801918370
:1028900080831FC0FE01E356FF4F84E191E09183E6
:1028A0008083FE01E356FF4F808191810197F1F70C
:1028B000FE01E356FF4F91838083DE01A156BF4F97
:1028C000FE01E156FF4F80819181019711969C9303
:1028D0008E93FE01E156FF4F808191810097D1F6E2
:1028E00027C08E0101561F4FFE01EF55FF4F60813B
:1028F0007181828193810E94DA1BDC01CB01F80196
:1029000091838083DE01A556BF4FFE01E156FF4F44
:10291000808191818D939C93FE01E556FF4F8081CC
:1029200091810197F1F7FE01E556FF4F9183808376
:102930000E94420B80911E03823709F0C5C082E0DD
:1029400063E00E94440980911E030E94C30783E054
:1029500090E00E948F0B86E966E90E944C0BFE0115
:10296000E956FF4F80E090E0AAE7B3E480839183CB
:10297000A283B3838E010D561F4FFE01E956FF4F10
:1029800060817181828193812DEC3CEC4CE255E4B5
:102990000E94B01DDC01CB01F80180839183A283EA
:1029A000B383FE01ED56FF4F608171818281938177
:1029B00020E030E040E85FE30E94B61F882344F443
:1029C000FE01EF56FF4F81E090E09183808364C069
:1029D000FE01ED56FF4F608171818281938120E07D
:1029E0003FEF4FE757E40E94561F18160CF043C004
:1029F000FE01E956FF4F608171818281938120E061
:102A000030E040E251E40E94B01DDC01CB018E01B8
:102A10000F561F4FBC01CD010E94DA1BDC01CB0118
:102A2000F801918380831FC0FE01E157FF4F84E1CD
:102A300091E091838083FE01E157FF4F8081918176
:102A40000197F1F7FE01E157FF4F91838083DE018B
:102A5000AF56BF4FFE01EF56FF4F80819181019726
:102A600011969C938E93FE01EF56FF4F80819181CA
:102A70000097D1F627C08E010F561F4FFE01ED566D
:102A8000FF4F60817181828193810E94DA1BDC019A
:102A9000CB01F80191838083DE01A357BF4FFE0174
:102AA000EF56FF4F808191818D939C93FE01E357F8
:102AB000FF4F808191810197F1F7FE01E357FF4FAE
:102AC000918380830E94420B80911E03803509F020
:102AD000E6C282E063E00E94440980911E030E94E6
:102AE000C30780E50E946A0FFE01E757FF4F80E0B1
:102AF00090E0AAE7B4E480839183A283B3838E013C
:102B00000B571F4FFE01E757FF4F60817181828194
:102B100093812DEC3CEC4CE255E40E94B01DDC01AD
:102B2000CB01F80180839183A283B383FE01EB572D
:102B3000FF4F608171818281938120E030E040E825
:102B40005FE30E94B61F882344F4FE01ED57FF4F58
:102B500081E090E09183808364C0FE01EB57FF4FDA
:102B6000608171818281938120E03FEF4FE757E4DC
:102B70000E94561F18160CF043C0FE01E757FF4F86
:102B8000608171818281938120E030E040E251E4F4
:102B90000E94B01DDC01CB018E010D571F4FBC01FF
:102BA000CD010E94DA1BDC01CB01F8019183808307
:102BB0001FC0FE01EF57FF4F84E191E091838083B6
:102BC000FE01EF57FF4F808191810197F1F7FE01E0
:102BD000EF57FF4F91838083DE01AD57BF4FFE015A
:102BE000ED57FF4F80819181019711969C938E93B1
:102BF000FE01ED57FF4F808191810097D1F627C0EC
:102C00008E010D571F4FFE01EB57FF4F6081718101
:102C1000828193810E94DA1BDC01CB01F801918350
:102C20008083DE01A158BF4FFE01ED57FF4F808129
:102C300091818D939C93FE01E158FF4F808191819A
:102C40000197F1F7FE01E158FF4F9183808380EAFD
:102C50000E94CE0E8CE80E941C0FFE01E558FF4F2B
:102C600080E090E0AAE7B4E480839183A283B383F9
:102C70008E0109581F4FFE01E558FF4F6081718199
:102C8000828193812DEC3CEC4CE255E40E94B01D16
:102C9000DC01CB01F80180839183A283B383FE0121
:102CA000E958FF4F608171818281938120E030E09B
:102CB00040E85FE30E94B61F882344F4FE01EB580E
:102CC000FF4F81E090E09183808364C0FE01E9586A
:102CD000FF4F608171818281938120E03FEF4FE758
:102CE00057E40E94561F18160CF043C0FE01E55829
:102CF000FF4F608171818281938120E030E040E26A
:102D000051E40E94B01DDC01CB018E010B581F4F16
:102D1000BC01CD010E94DA1BDC01CB01F8019183DB
:102D200080831FC0FE01ED58FF4F84E191E0918345
:102D30008083FE01ED58FF4F808191810197F1F76B
:102D4000FE01ED58FF4F91838083DE01AB58BF4FEA
:102D5000FE01EB58FF4F80819181019711969C9362
:102D60008E93FE01EB58FF4F808191810097D1F641
:102D700027C08E010B581F4FFE01E958FF4F60819D
:102D80007181828193810E94DA1BDC01CB01F80101
:102D900091838083DE01AF58BF4FFE01EB58FF4F98
:102DA000808191818D939C93FE01EF58FF4F80812C
:102DB00091810197F1F7FE01EF58FF4F91838083D6
:102DC00088E70E946A0FFE01E359FF4F80E090E020
:102DD000AAE7B4E480839183A283B3838E01075969
:102DE0001F4FFE01E359FF4F608171818281938102
:102DF0002DEC3CEC4CE255E40E94B01DDC01CB0113
:102E0000F80180839183A283B383FE01E759FF4FCA
:102E1000608171818281938120E030E040E85FE34E
:102E20000E94B61F882344F4FE01E959FF4F81E058
:102E300090E09183808364C0FE01E759FF4F608179
:102E400071818281938120E03FEF4FE757E40E9438
:102E5000561F18160CF043C0FE01E359FF4F608166
:102E600071818281938120E030E040E251E40E9450
:102E7000B01DDC01CB018E0109591F4FBC01CD01F2
:102E80000E94DA1BDC01CB01F801918380831FC013
:102E9000FE01EB59FF4F84E191E091838083FE01B5
:102EA000EB59FF4F808191810197F1F7FE01EB59BA
:102EB000FF4F91838083DE01A959BF4FFE01E9597D
:102EC000FF4F80819181019711969C938E93FE0113
:102ED000E959FF4F808191810097D1F627C08E017B
:102EE00009591F4FFE01E759FF4F608171818281AF
:102EF00093810E94DA1BDC01CB01F801918380836E
:102F0000DE01AD59BF4FFE01E959FF4F808191812C
:102F10008D939C93FE01ED59FF4F80819181019724
:102F2000F1F7FE01ED59FF4F918380838EE10E94FE
:102F3000CE0E8AEF0E941C0FFE01E15AFF4F80E087
:102F400090E0AAE7B4E480839183A283B3838E01E7
:102F5000055A1F4FFE01E15AFF4F60817181828146
:102F600093812DEC3CEC4CE255E40E94B01DDC0159
:102F7000CB01F80180839183A283B383FE01E55ADC
:102F8000FF4F608171818281938120E030E040E8D1
:102F90005FE30E94B61F882344F4FE01E75AFF4F07
:102FA00081E090E09183808364C0FE01E55AFF4F89
:102FB000608171818281938120E03FEF4FE757E488
:102FC0000E94561F18160CF043C0FE01E15AFF4F35
:102FD000608171818281938120E030E040E251E4A0
:102FE0000E94B01DDC01CB018E01075A1F4FBC01AE
:102FF000CD010E94DA1BDC01CB01F80191838083B3
:103000001FC0FE01E95AFF4F84E191E09183808364
:10301000FE01E95AFF4F808191810197F1F7FE018E
:10302000E95AFF4F91838083DE01A75ABF4FFE010B
:10303000E75AFF4F80819181019711969C938E935F
:10304000FE01E75AFF4F808191810097D1F627C09A
:103050008E01075A1F4FFE01E55AFF4F60817181B3
:10306000828193810E94DA1BDC01CB01F8019183FC
:103070008083DE01AB5ABF4FFE01E75AFF4F8081CC
:1030800091818D939C93FE01EB5AFF4F808191813A
:103090000197F1F7FE01EB5AFF4F9183808380E3A4
:1030A00080931E038BE00E948D0D809323038091FB
:1030B00023030E94C70DFE01EA51FF4F91838083D5
:1030C000FE01EA51FF4F2081318181E061E0A901D9
:1030D00023E030E00E94860989E00E948D0D8093F4
:1030E0001B0380911B030E94C70DFE01EC51FF4F93
:1030F00091838083FE01EC51FF4F2081318181E07B
:1031000065E0A90123E030E00E948609FE01EA5152
:10311000FF4F808191818437910550F0FE01EC5181
:10312000FF4F80819181813F910510F00C948810B0
:10313000FE01EE51FF4F80819181009709F0C0C2DE
:103140000E94420B80E50E946A0FFE01EF5AFF4F7A
:1031500080E090E0AAE7B4E480839183A283B38304
:103160008E01035B1F4FFE01EF5AFF4F608171819B
:10317000828193812DEC3CEC4CE255E40E94B01D21
:10318000DC01CB01F80180839183A283B383FE012C
:10319000E35BFF4F608171818281938120E030E0A9
:1031A00040E85FE30E94B61F882344F4FE01E55B1C
:1031B000FF4F81E090E09183808364C0FE01E35B78
:1031C000FF4F608171818281938120E03FEF4FE763
:1031D00057E40E94561F18160CF043C0FE01EF5A28
:1031E000FF4F608171818281938120E030E040E275
:1031F00051E40E94B01DDC01CB018E01055B1F4F25
:10320000BC01CD010E94DA1BDC01CB01F8019183E6
:1032100080831FC0FE01E75BFF4F84E191E0918353
:103220008083FE01E75BFF4F808191810197F1F779
:10323000FE01E75BFF4F91838083DE01A55BBF4FFB
:10324000FE01E55BFF4F80819181019711969C9370
:103250008E93FE01E55BFF4F808191810097D1F64F
:1032600027C08E01055B1F4FFE01E35BFF4F6081AE
:103270007181828193810E94DA1BDC01CB01F8010C
:1032800091838083DE01A95BBF4FFE01E55BFF4FA9
:10329000808191818D939C93FE01E95BFF4F80813A
:1032A00091810197F1F7FE01E95BFF4F91838083E4
:1032B00080EA0E94CE0E8CE80E941C0FFE01ED5B9E
:1032C000FF4F80E090E0AAE7B4E480839183A2837B
:1032D000B3838E01015C1F4FFE01ED5BFF4F6081E8
:1032E0007181828193812DEC3CEC4CE255E40E948B
:1032F000B01DDC01CB01F80180839183A283B383ED
:10330000FE01FF96608171818281938120E030E02F
:1033100040E85FE30E94B61F88232CF481E090E030
:103320009EAF8DAF46C0FE01FF96608171818281A4
:10333000938120E03FEF4FE757E40E94561F181695
:1033400064F5FE01ED5BFF4F6081718182819381A5
:1033500020E030E040E251E40E94B01DDC01CB01EE
:10336000BC01CD010E94DA1BDC01CB019EAF8DAF09
:103370000FC084E191E09CAF8BAF8BAD9CAD01970A
:10338000F1F79CAF8BAF8DAD9EAD01979EAF8DAF2A
:103390008DAD9EAD009769F716C0FE01FF96608166
:1033A0007181828193810E94DA1BDC01CB019EAF87
:1033B0008DAF8DAD9EAD9AAF89AF89AD9AAD0197B6
:1033C000F1F79AAF89AF88E70E946A0F80E090E03A
:1033D000AAE7B4E48DAB9EABAFABB8AF6DA97EA945
:1033E0008FA998AD2DEC3CEC4CE255E40E94B01D49
:1033F000DC01CB0189AB9AABABABBCAB69A97AA9B9
:103400008BA99CA920E030E040E85FE30E94B61F52
:1034100088232CF481E090E098AB8FA73FC069A986
:103420007AA98BA99CA920E03FEF4FE757E40E94BF
:10343000561F18164CF56DA97EA98FA998AD20E0EE
:1034400030E040E251E40E94B01DDC01CB01BC0140
:10345000CD010E94DA1BDC01CB0198AB8FA70FC016
:1034600084E191E09EA78DA78DA59EA50197F1F718
:103470009EA78DA78FA598A9019798AB8FA78FA519
:1034800098A9009769F714C069A97AA98BA99CA982
:103490000E94DA1BDC01CB0198AB8FA78FA598A9FE
:1034A0009CA78BA78BA59CA50197F1F79CA78BA741
:1034B0008EE10E94CE0E8AEF0E941C0F80E090E009
:1034C000AAE7B4E48FA398A7A9A7BAA76FA178A584
:1034D00089A59AA52DEC3CEC4CE255E40E94B01D68
:1034E000DC01CB018BA39CA3ADA3BEA36BA17CA1EC
:1034F0008DA19EA120E030E040E85FE30E94B61F6E
:1035000088232CF481E090E09AA389A33FC06BA1AB
:103510007CA18DA19EA120E03FEF4FE757E40E94E0
:10352000561F18164CF56FA178A589A59AA520E01D
:1035300030E040E251E40E94B01DDC01CB01BC014F
:10354000CD010E94DA1BDC01CB019AA389A30FC035
:1035500084E191E098A38F8F8F8D98A10197F1F767
:1035600098A38F8F89A19AA101979AA389A389A172
:103570009AA1009769F714C06BA17CA18DA19EA1AF
:103580000E94DA1BDC01CB019AA389A389A19AA12D
:103590009E8F8D8F8D8D9E8D0197F1F79E8F8D8FD4
:1035A000FE01EA51FF4F2081318181E061E0A901F4
:1035B00023E030E00E948609FE01EC51FF4F20819C
:1035C000318181E065E0A90123E030E00E948609B5
:1035D0000E94370B80E090E0AAE7B4E4898F9A8FCD
:1035E000AB8FBC8F698D7A8D8B8D9C8D2DEC3CECD7
:1035F0004CE255E40E94B01DDC01CB018D8B9E8B0B
:10360000AF8BB88F6D897E898F89988D20E030E0EF
:1036100040E85FE30E94B61F88232CF481E090E02D
:103620009C8B8B8B3FC06D897E898F89988D20E024
:103630003FEF4FE757E40E94561F18164CF5698D6F
:103640007A8D8B8D9C8D20E030E040E251E40E9429
:10365000B01DDC01CB01BC01CD010E94DA1BDC01F5
:10366000CB019C8B8B8B0FC084E191E09A8B898B73
:1036700089899A890197F1F79A8B898B8B899C8923
:1036800001979C8B8B8B8B899C89009769F714C061
:103690006D897E898F89988D0E94DA1BDC01CB01B0
:1036A0009C8B8B8B8B899C89988B8F878F85988936
:1036B0000197F1F7988B8F870E94420B0C94521060
:1036C0000E94420B0E94370B80E090E0A8ECB2E42D
:1036D0008B879C87AD87BE876B857C858D859E8516
:1036E0002DEC3CEC4CE255E40E94B01DDC01CB011A
:1036F0008F839887A987BA876F81788589859A850E
:1037000020E030E040E85FE30E94B61F88232CF4FD
:1037100081E090E09E838D833FC06F8178858985AD
:103720009A8520E03FEF4FE757E40E94561F181696
:103730004CF56B857C858D859E8520E030E040E2F0
:1037400051E40E94B01DDC01CB01BC01CD010E94FF
:10375000DA1BDC01CB019E838D830FC084E191E0F5
:103760009C838B838B819C810197F1F79C838B8356
:103770008D819E8101979E838D838D819E8100978F
:1037800069F714C06F81788589859A850E94DA1B54
:10379000DC01CB019E838D838D819E819A838983F9
:1037A00089819A810197F1F79A8389830E94420B5C
:1037B0000C945210EF92FF920F931F937B018C0198
:1037C00020E030E040E05FE40E94861F88238CF018
:1037D000C801B70120E030E040E05FE40E94521DE4
:1037E0000E9444209B01AC01205030404040504892
:1037F00006C0C801B7010E9444209B01AC01B90179
:10380000CA011F910F91FF90EF900895A0E0B0E0E2
:10381000ECE0FCE10C941A23DC012B01FA019C91F1
:10382000923008F439C1EB018881823008F433C149
:10383000943069F4843009F02FC111969C9111974E
:103840008981981709F428C1A0E0B2E025C184302D
:1038500009F421C18230A9F4923009F01DC19A0106
:10386000AD0188E0EA010990AE01E90109929E01EB
:103870008150C1F7E201898111969C91892381834E
:1038800008C1923009F407C112962D903C9013970D
:10389000EB018A819B811496AD90BD90CD90DC9018
:1038A0001797EC80FD800E811F819101281B390B39
:1038B000B90137FF04C066277727621B730B60329C
:1038C00071050CF061C0121613066CF53701480142
:1038D000062E04C096948794779467940A94D2F73E
:1038E00021E030E040E050E004C0220F331F441FCD
:1038F000551F6A95D2F721503040404050402E214C
:103900003F2140235123211531054105510521F067
:1039100021E030E040E050E079018A01E628F72814
:10392000082919293CC0232BD1F1260E371E350159
:103930004601062E04C096948794779467940A945F
:10394000D2F721E030E040E050E004C0220F331F06
:10395000441F551F6A95D2F72150304040405040D7
:103960002A213B214C215D212115310541055105BD
:1039700021F021E030E040E050E059016A01A62842
:10398000B728C828D9280BC0821593052CF01C0134
:10399000AA24BB24650103C0EE24FF2487011196ED
:1039A0009C91D20111968C91981709F445C09923E6
:1039B00039F0A80197012A193B094C095D0906C095
:1039C000A60195012E193F09400B510B57FD08C068
:1039D00011823382228224833583468357831DC01C
:1039E00081E081833382228288279927DC01821B30
:1039F000930BA40BB50B84839583A683B7830DC06B
:103A0000220F331F441F551F24833583468357835A
:103A100082819381019793838283248135814681BA
:103A20005781DA01C9010197A109B1098F5F9F4F41
:103A3000AF4FBF4328F30BC0918333822282EA0C3D
:103A4000FB1C0C1D1D1DE482F5820683178383E099
:103A50008083248135814681578157FF1AC0C9016F
:103A6000AA2797FDA095BA2F81709070A070B070B2
:103A70005695479537952795822B932BA42BB52BDD
:103A800084839583A683B7838281938101969383F0
:103A90008283DF0101C0D201CD01CDB7DEB7E2E103
:103AA0000C943623A0E2B0E0E8E5FDE10C94262377
:103AB00069837A838B839C832D833E834F835887CE
:103AC000E9E0EE2EF12CEC0EFD1ECE010196B701C1
:103AD0000E9435228E010F5E1F4FCE010596B80160
:103AE0000E9435228A8991E089278A8BC701B80113
:103AF000AE01475E5F4F0E94061C0E946021A096A7
:103B0000E6E00C944223A0E2B0E0E9E8FDE10C9489
:103B1000262369837A838B839C832D833E834F8303
:103B20005887F9E0EF2EF12CEC0EFD1ECE01019628
:103B3000B7010E9435228E010F5E1F4FCE01059600
:103B4000B8010E943522C701B801AE01475E5F4F40
:103B50000E94061C0E946021A096E6E00C9442237D
:103B6000A0E2B0E0E6EBFDE10C941A2369837A83CE
:103B70008B839C832D833E834F835887CE01019690
:103B8000BE01675F7F4F0E943522CE010596BE01C0
:103B90006F5E7F4F0E9435229985923088F0898927
:103BA0008230C8F0943019F4823051F404C084306B
:103BB00029F4923081F480E092E0C6C0923049F45A
:103BC00020E09A858A89981321E02A87CE010996F8
:103BD000BBC0823049F420E09A858A89981321E09D
:103BE0002A8BCE014196B0C02D843E844F845888E4
:103BF0006D887E888F88988CEE24FF248701AA2404
:103C0000BB24650140E050E060E070E0E0E0F0E0FF
:103C1000C10181709070892BE9F0E60CF71C081D3A
:103C2000191D9A01AB012A0D3B1D4C1D5D1D80E045
:103C300090E0A0E0B0E0E614F7040805190520F4D0
:103C400081E090E0A0E0B0E0BA01A901480F591F5F
:103C50006A1F7B1FAA0CBB1CCC1CDD1C97FE08C076
:103C600081E090E0A0E0B0E0A82AB92ACA2ADB2AC5
:103C70003196E032F10549F0660C771C881C991CDE
:103C80005694479437942794C3CFFA85EA892B89B1
:103C90003C898B859C85280F391F2E5F3F4F17C0AD
:103CA000CA0181709070892B61F016950795F79481
:103CB000E79480E090E0A0E0B0E8E82AF92A0A2B37
:103CC0001B2B76956795579547952F5F3F4F77FD4F
:103CD000E7CF0CC0440F551F661F771F17FD4160CB
:103CE000EE0CFF1C001F111F21503040403090E0AF
:103CF000590790E0690790E4790760F32B8F3C8FB8
:103D0000DB01CA018F779070A070B070803491058C
:103D1000A105B10561F447FD0AC0E114F1040105F4
:103D2000110529F0405C5F4F6F4F7F4F40781A8E2E
:103D3000FE1711F081E08A8F4D8F5E8F6F8F78A311
:103D400083E0898FCE0149960E946021A096E2E12E
:103D50000C943623A8E1B0E0E0EBFEE10C942223C2
:103D600069837A838B839C832D833E834F8358871B
:103D7000B9E0EB2EF12CEC0EFD1ECE010196B70141
:103D80000E9435228E010F5E1F4FCE010596B801AD
:103D90000E9435222985223008F47EC039893230CC
:103DA00010F4B8017CC08A859A8989278A872430D3
:103DB00011F0223031F4231709F06EC060E072E098
:103DC0006EC0343039F41D861E861F86188A1C8604
:103DD0001B8604C0323021F484E08987B7015FC0BC
:103DE0002B853C858B899C89281B390B3C872B872D
:103DF000ED84FE840F851889AD88BE88CF88D88C65
:103E0000EA14FB040C051D0540F4EE0CFF1C001F1A
:103E1000111F215030403C872B8720E030E040E0EC
:103E200050E080E090E0A0E0B0E460E070E0EA14F0
:103E3000FB040C051D0540F0282B392B4A2B5B2B6E
:103E4000EA18FB080C091D09B695A7959795879563
:103E5000EE0CFF1C001F111F6F5F7F4F6F3171054C
:103E600031F7DA01C9018F779070A070B07080349B
:103E70009105A105B10561F427FD0AC0E114F10423
:103E80000105110529F0205C3F4F4F4F5F4F20780F
:103E90002D873E874F87588BBE01675F7F4FCB01D1
:103EA0000E9460216896EAE00C943E23A8E1B0E00D
:103EB000ECE5FFE10C94262369837A838B839C8352
:103EC0002D833E834F83588789E0E82EF12CEC0E3A
:103ED000FD1ECE010196B7010E9435228E010F5EB4
:103EE0001F4FCE010596B8010E9435228985823088
:103EF00040F08989823028F0C701B8010E94AD22C4
:103F000001C08FEF6896E6E00C944223A8E1B0E090
:103F1000ECE8FFE10C94262369837A838B839C83EE
:103F20002D833E834F83588789E0E82EF12CEC0ED9
:103F3000FD1ECE010196B7010E9435228E010F5E53
:103F40001F4FCE010596B8010E9435228985823027
:103F500040F08989823028F0C701B8010E94AD2263
:103F600001C08FEF6896E6E00C944223A8E1B0E030
:103F7000ECEBFFE10C94262369837A838B839C838B
:103F80002D833E834F83588789E0E82EF12CEC0E79
:103F9000FD1ECE010196B7010E9435228E010F5EF3
:103FA0001F4FCE010596B8010E94352289858230C7
:103FB00040F08989823028F0C701B8010E94AD2203
:103FC00001C081E06896E6E00C944223A8E0B0E0EE
:103FD000ECEEFFE10C9423239B01AC0183E0898389
:103FE000DA01C9018827B7FD83959927AA27BB273E
:103FF000B82E211531054105510519F482E0898358
:104000003AC08823A9F0203080E0380780E04807D4
:1040100080E8580729F460E070E080E09FEC30C051
:10402000EE24FF248701E21AF30A040B150B02C0E9
:1040300079018A018EE1C82ED12CDC82CB82ED82FF
:10404000FE820F831887C801B7010E9411210197D2
:104050001816190684F4082E04C0EE0CFF1C001F6D
:10406000111F0A94D2F7ED82FE820F831887C81AB7
:10407000D90ADC82CB82BA82CE0101960E946021ED
:104080002896E9E00C943F23ACE0B0E0EAE4F0E2EB
:104090000C942A2369837A838B839C83CE010196B7
:1040A000BE016B5F7F4F0E9435228D81823061F1AE
:1040B000823050F1843021F48E81882351F12EC05A
:1040C0002F81388537FD20C06E812F3131051CF0DE
:1040D0006623F9F023C08EE190E0821B930B2985C3
:1040E0003A854B855C8504C056954795379527954D
:1040F0008A95D2F76623B1F0509540953095219579
:104100003F4F4F4F5F4F0EC020E030E040E050E0A7
:1041100009C02FEF3FEF4FEF5FE704C020E030E032
:1041200040E050E8B901CA012C96E2E00C94462325
:10413000A8E0B0E0EEE9F0E20C9422237B018C01D0
:10414000611571058105910519F482E0898360C0CC
:1041500083E089838EE1C82ED12CDC82CB82ED8274
:10416000FE820F831887C801B7010E941121FC014C
:104170003197F7FF3BC0222733272E1B3F0B5701F8
:104180006801022E04C0D694C794B794A7940A94E9
:10419000D2F740E050E060E070E081E090E0A0E025
:1041A000B0E004C0880F991FAA1FBB1F2A95D2F741
:1041B0000197A109B1098E219F21A023B123009766
:1041C000A105B10521F041E050E060E070E04A292E
:1041D0005B296C297D294D835E836F8378878EE10F
:1041E00090E08E1B9F0B9C838B8312C0309781F0D5
:1041F0000E2E04C0EE0CFF1C001F111F0A94D2F7F4
:10420000ED82FE820F831887CE1ADF0ADC82CB8212
:104210001A82CE0101960E9460212896EAE00C9451
:104220003E23EF92FF920F931F937B018C0180E05E
:10423000E81680E0F80681E0080780E0180788F4B7
:104240008FEFE816F1040105110531F028F088E040
:1042500090E0A0E0B0E017C080E090E0A0E0B0E027
:1042600012C080E0E81680E0F80680E0080781E0F0
:10427000180728F088E190E0A0E0B0E004C080E1F9
:1042800090E0A0E0B0E020E230E040E050E0281B09
:10429000390B4A0B5B0B04C016950795F794E7940E
:1042A0008A95D2F7F701E85FFD4F8081281B31091D
:1042B00041095109C9011F910F91FF90EF90089595
:1042C000DF92EF92FF920F931F93FC01E480F58041
:1042D00006811781D1808081823048F480E090E0AF
:1042E000A0E1B0E0E82AF92A0A2B1B2BA5C08430F4
:1042F00009F49FC0823021F4EE24FF24870105C019
:10430000E114F1040105110519F4E0E0F0E096C0B4
:10431000628173819FEF623879070CF05BC022E8FD
:104320003FEF261B370B2A3131052CF020E030E01F
:1043300040E050E02AC0B801A701022E04C07695E3
:104340006795579547950A94D2F781E090E0A0E0F1
:10435000B0E004C0880F991FAA1FBB1F2A95D2F78F
:104360000197A109B1098E219F21A023B1230097B4
:10437000A105B10521F081E090E0A0E0B0E09A0154
:10438000AB01282B392B4A2B5B2BDA01C9018F7724
:104390009070A070B07080349105A105B10539F41A
:1043A00027FF09C0205C3F4F4F4F5F4F04C0215C87
:1043B0003F4F4F4F5F4FE0E0F0E02030A0E03A0782
:1043C000A0E04A07A0E45A0710F0E1E0F0E079012C
:1043D0008A0127C06038710564F5FB01E158FF4F81
:1043E000D801C7018F779070A070B07080349105AC
:1043F000A105B10539F4E7FE0DC080E490E0A0E02E
:10440000B0E004C08FE390E0A0E0B0E0E80EF91E59
:104410000A1F1B1F17FF05C016950795F794E79411
:10442000319687E016950795F794E7948A95D1F72A
:1044300005C0EE24FF248701EFEFF0E06E2F6795B3
:1044400066276795902F9F77D794DD24D7948E2F7A
:104450008695492F462B582F5D29B701CA011F9118
:104460000F91FF90EF90DF900895FC01DB014081F8
:1044700051812281622F6F7770E0221F2227221F35
:104480009381892F880F822B282F30E0991F99273D
:10449000991F11969C93119721153105A9F5411586
:1044A00051056105710511F482E037C082E89FEF84
:1044B00013969C938E9312979A01AB0167E0220F9B
:1044C000331F441F551F6A95D1F783E08C930DC0AD
:1044D000220F331F441F551F12968D919C911397E5
:1044E000019713969C938E931297203080E03807A3
:1044F00080E0480780E4580758F314962D933D93C5
:104500004D935C93179708952F3F310579F441152A
:1045100051056105710519F484E08C93089564FFD9
:1045200003C081E08C9312C01C9210C02F57304002
:1045300013963C932E93129783E08C9387E0440F5D
:10454000551F661F771F8A95D1F7706414964D9397
:104550005D936D937C93179708951F93DC01FB0186
:104560009C91923008F447C08081823008F443C0A7
:10457000943051F411961C91843099F58181682F03
:1045800070E0611B71093FC0843021F0923031F43A
:104590008230B9F18181882389F12DC011961C9157
:1045A00011978230F1F081811817D9F412962D916C
:1045B0003C911397828193818217930794F0281777
:1045C0003907BCF014968D919D910D90BC91A02D52
:1045D0002481358146815781281739074A075B07AF
:1045E00018F4112341F00AC082179307A407B507F6
:1045F00040F4112319F061E070E005C06FEF7FEF28
:1046000002C060E070E0CB011F910895AA1BBB1BA4
:1046100051E107C0AA1FBB1FA617B70710F0A61BC2
:10462000B70B881F991F5A95A9F780959095BC01E3
:10463000CD0108952F923F924F925F926F927F9299
:104640008F929F92AF92BF92CF92DF92EF92FF92A2
:104650000F931F93CF93DF93CDB7DEB7CA1BDB0B4E
:104660000FB6F894DEBF0FBECDBF19942A883988E3
:1046700048885F846E847D848C849B84AA84B984FA
:10468000C884DF80EE80FD800C811B81AA81B98106
:10469000CE0FD11D0FB6F894DEBF0FBECDBFED011A
:1046A0000895FA01EE0FFF1F30962105310599F1AB
:1046B0006115710561F48038BFE39B0749F1689487
:1046C0009038810561F08038BFEF9B0741F0992356
:1046D00042F5FF3FE1053105210511F1E894089409
:1046E000E795D901AA2329F4AB2FBE2FF85FD0F3A9
:1046F00010C0FF5F70F4A695E0F7F73950F019F09D
:10470000FF3A38F49F779F930CD00F9007FC905896
:1047100008953EF049C060E070E080E89FE30895AE
:104720004FE79F775F934F933F932F93D0D02F9175
:104730003F914F915F9114DA05C019F40EF02EC02D
:104740007DC032C061D0C8F39638C0F707F80F9229
:10475000E8942BE33AEA48EB5FE738D10F920F92E7
:104760000F924DB75EB70F92F2D0E4EEF0E01FD09B
:104770004F915F91EF91FF91E595EE1FFF1F49F07B
:10478000FE57E0684427EE0F441FFA95E1F7419584
:10479000550B64D00F9007FE58C0089597F99F6796
:1047A00080E870E060E008959FEF80EC0895DF936B
:1047B000CF931F930F93FF92EF92DF927B018C01B7
:1047C000689405C0DA2EEF01FFD0FE01E894A591B0
:1047D0002591359145915591AEF3EF0159D1FE01E7
:1047E0009701A801DA9479F7DF90EF90FF900F918D
:1047F0001F91CF91DF91089557FD9058440F551F99
:1048000059F05F3F71F04795880F97FB991F61F052
:104810009F3F79F087950895121613061406551FC9
:10482000F2CF4695F1DF08C0161617061806991F35
:10483000F1CF86957105610508940895E894BB272A
:1048400066277727CB0197F908959B01AC0160E0BB
:1048500070E080E89FE37ECAA1CF6DC1D5DFE8F3A9
:104860009923D9F3940F511DBBF39150504094F00C
:1048700059F0882332F0660F771F881F91505040FF
:10488000C1F79E3F510544F7880F911D9695879576
:1048900097F908955F3FACF0983E9CF0BB27869552
:1048A00077956795B79508F4B1609395C1F7BB0FFD
:1048B00058F711F460FFE8CF6F5F7F4F8F4F9F4F26
:1048C000E3CFBDCF0EF037C16FCF689467CF9CDFC9
:1048D000C8F39923D1F3C6F3DF93CF931F930F93BC
:1048E000FF92C92FDD2788232AF02197660F771FB3
:1048F000881FDAF720E030E040E85FEB9FE388397B
:1049000020F0803E30F021968F77FDD8ECE0F1E08A
:1049100003C0F9D8E9E3F1E04ADF8B01BE01EC0105
:10492000FB2E6F5771097595771F880B990B4EDB1E
:1049300028E132E741E35FE347D0AF2D9801AE01B4
:10494000FF900F911F91CF91DF91A2D010C1FA017A
:10495000DC01AA0FBB1F9B01AC01BF5728F4222723
:104960003327442750781FC0B75188F4AB2F002459
:10497000469537952795011CA395D2F3002069F041
:10498000220F331F441FB395DAF30DD08BC861306B
:104990007105A0E88A07B94630F49B01AC0166278F
:1049A000772788279078309621F0208331834283BF
:1049B00053830895CED028F0D3D018F0952309F072
:1049C000EDCEF2CE11243BCF17DFA0F3959FD1F3AC
:1049D000950F50E0551F629FF001729FBB27F00DAD
:1049E000B11D639FAA27F00DB11DAA1F649F662702
:1049F000B00DA11D661F829F2227B00DA11D621F51
:104A0000739FB00DA11D621F839FA00D611D221F0A
:104A1000749F3327A00D611D231F849F600D211DEE
:104A2000822F762F6A2F11249F5750408AF0E1F091
:104A300088234AF0EE0FFF1FBB1F661F771F881FDA
:104A400091505040A9F79E3F510570F0A7CEF7CE88
:104A50005F3FECF3983EDCF3869577956795B795C5
:104A6000F795E7959F5FC1F7FE2B880F911D9695EF
:104A7000879597F908956DD030F072D020F031F419
:104A80009F3F11F41EF490CE0EF4E095E7FB86CE26
:104A9000E92FB2DE80F3BA17620773078407950720
:104AA00018F071F49EF5CACE0EF4E0950B2EBA2FD5
:104AB000A02D0B01B90190010C01CA01A001112424
:104AC000FF27591B99F0593F50F4503E68F11A16D0
:104AD000F040A22F232F342F4427585FF3CF469561
:104AE00037952795A795F0405395C9F77EF41F1683
:104AF000BA0B620B730B840BBAF09150A1F0FF0F4D
:104B0000BB1F661F771F881FC2F70EC0BA0F621F38
:104B1000731F841F48F4879577956795B795F79528
:104B20009E3F08F0B3CF9395880F08F09927EE0FBA
:104B30009795879508959F3F31F0915020F4879580
:104B400077956795B795880F911D9695879597F9F5
:104B5000089500240A9416161706180609060895E3
:104B600000240A9412161306140605060895092E49
:104B70000394000C11F4882352F0BB0F40F4BF2BB8
:104B800011F460FF04C06F5F7F4F8F4F9F4F0895F8
:044B9000F894FFCFC7
:104B94000000000000000000000102020303030300
:104BA40004040404040404040505050505050505B9
:104BB4000505050505050505060606060606060699
:104BC4000606060606060606060606060606060681
:104BD4000606060606060606070707070707070769
:104BE4000707070707070707070707070707070751
:104BF4000707070707070707070707070707070741
:104C04000707070707070707070707070707070730
:104C14000707070707070707080808080808080818
:104C24000808080808080808080808080808080800
:104C340008080808080808080808080808080808F0
:104C440008080808080808080808080808080808E0
:104C540008080808080808080808080808080808D0
:104C640008080808080808080808080808080808C0
:104C740008080808080808080808080808080808B0
:104C840008080808080808080808080808080808A0
:084C94000808080808080808D8
:00000001FF
